:100000000C945D000C9485000C9485000C94850084
:100010000C9485000C9485000C9485000C9485004C
:100020000C9485000C9485000C9485000C9485003C
:100030000C9485000C9485000C9485000C9485002C
:100040000C9415030C9485000C94E3020C94BD02EF
:100050000C9485000C9485000C9485000C9485000C
:100060000C9485000C94850000000008000201003B
:100070000003040700000000000000000000000072
:10008000250028002B0000000000240027002A0083
:10009000040404040404040402020202020203032E
:1000A0000303030301020408102040800102040836
:1000B00010200102040810205F0311241FBECFEF9F
:1000C000D8E0DEBFCDBF22E0AAE3B1E001C01D92BF
:1000D000AA32B207E1F711E0A0E0B1E0E6E9FBE007
:1000E00002C005900D92AA33B107D9F710E0CDE513
:1000F000D0E004C02197FE010E94C305CC35D10792
:10010000C9F70E949E030C94C9050C940000E7E413
:10011000F1E0A089B18982E08C93A485B5851C9219
:10012000A685B7858FEC8C93108EA489B58986E05F
:100130008C93A289B3898C9180618C93A289B389B5
:100140008C9188608C93A289B3898C9180688C9300
:100150000288F389E02D80818F7D80830895AF929E
:10016000BF92CF92DF92EF92FF920F931F93CF93A4
:10017000DF936C017B018B01040F151FEB015E0106
:10018000AE18BF08C017D10759F06991D601ED919B
:10019000FC910190F081E02DC6010995892B79F73A
:1001A000C501DF91CF911F910F91FF90EF90DF90EC
:1001B000CF90BF90AF900895FC01538D448D252FB3
:1001C00030E0842F90E0821B930B541710F0CF96F1
:1001D000089501970895FC01918D828D981761F023
:1001E000A28DAE0FBF2FB11D5D968C91928D9F5F3A
:1001F0009F73928F90E008958FEF9FEF0895FC0119
:10020000918D828D981731F0828DE80FF11D858DCB
:1002100090E008958FEF9FEF0895FC01918D228D5E
:10022000892F90E0805C9F4F821B91098F739927E3
:10023000089587E491E00E940D0121E0892B09F4E3
:1002400020E0822F089580E090E0892B29F00E9421
:10025000190181110C9400000895FC01A48DA80FD0
:10026000B92FB11DA35ABF4F2C91848D90E00196F8
:100270008F739927848FA689B7892C93A089B18918
:100280008C91837080648C93938D848D981306C0B9
:100290000288F389E02D80818F7D80830895EF921D
:1002A000FF920F931F93CF93DF93EC0181E0888F30
:1002B0009B8D8C8D98131AC0E889F989808185FF00
:1002C00015C09FB7F894EE89FF896083E889F989A2
:1002D00080818370806480839FBF81E090E0DF91A4
:1002E000CF911F910F91FF90EF900895F62E0B8DF7
:1002F00010E00F5F1F4F0F731127E02E8C8D8E11B2
:100300000CC00FB607FCFACFE889F989808185FF18
:10031000F5CFCE010E942D01F1CFEB8DEC0FFD2F1B
:10032000F11DE35AFF4FF0829FB7F8940B8FEA89D3
:10033000FB8980818062CFCFCF93DF93EC01888DE2
:100340008823B9F0AA89BB89E889F9898C9185FD50
:1003500003C0808186FD0DC00FB607FCF7CF8C91DE
:1003600085FFF2CF808185FFEDCFCE010E942D0168
:10037000E9CFDF91CF91089590E0FC01E859FF4F5C
:100380002491FC01EC55FF4F3491FC01E057FF4FE5
:10039000E491EE23C9F0222339F0233001F1A8F4CF
:1003A000213019F1223029F1F0E0EE0FFF1FE4585F
:1003B000FF4FA591B4918FB7F894EC91611126C0CD
:1003C00030953E233C938FBF08952730A9F0283005
:1003D000C9F0243049F7809180008F7D03C080915F
:1003E00080008F7780938000DFCF84B58F7784BDC6
:1003F000DBCF84B58F7DFBCF8091B0008F7780936A
:10040000B000D2CF8091B0008F7DF9CF3E2BDACFF4
:100410003FB7F89480913F0190914001A091410134
:10042000B091420126B5A89B05C02F3F19F0019657
:10043000A11DB11D3FBFBA2FA92F982F8827BC013E
:10044000CD01620F711D811D911D42E0660F771F66
:10045000881F991F4A95D1F708958F929F92AF9266
:10046000BF92CF92DF92EF92FF926B017C010E94CC
:1004700008024B015C01C114D104E104F104B9F09C
:100480000E940802681979098A099B09683E73402D
:100490008105910580F321E0C21AD108E108F10835
:1004A00088EE880E83E0981EA11CB11CE4CFFF905B
:1004B000EF90DF90CF90BF90AF909F908F90089576
:1004C0002FB7F89460913B0170913C0180913D0100
:1004D00090913E012FBF0895FC0101900020E9F7A3
:1004E0003197AF01481B590BBC0187E491E00C9494
:1004F000AF008F929F92AF92BF920F931F93CF93B3
:10050000DF93CDB7DEB7A1970FB6F894DEBF0FBE6D
:10051000CDBF19A2423008F44AE08E010F5D1F4F93
:10052000842E912CB12CA12CA50194010E94A1052F
:10053000E62FB901CA01EA30F4F4E05DD801EE9388
:100540008D01232B242B252B79F790E080E0109749
:1005500019F0CD010E946C02A1960FB6F894DEBF8F
:100560000FBECDBFDF91CF911F910F91BF90AF9084
:100570009F908F900895E95CE1CF1F920F920FB684
:100580000F9211242F933F934F935F936F937F9319
:100590008F939F93AF93BF93EF93FF9387E491E083
:1005A0000E942D01FF91EF91BF91AF919F918F918B
:1005B0007F916F915F914F913F912F910F900FBE5F
:1005C0000F901F9018951F920F920FB60F92112443
:1005D0002F938F939F93EF93FF93E0915701F091A7
:1005E00058018081E0915D01F0915E0182FD1BC0A8
:1005F0009081809160018F5F8F73209161018217DC
:1006000041F0E0916001F0E0E95BFE4F958F80934F
:100610006001FF91EF919F918F912F910F900FBEED
:100620000F901F9018958081F4CF1F920F920FB6F4
:100630000F9211242F933F938F939F93AF93BF9368
:1006400080913B0190913C01A0913D01B0913E0110
:1006500030913A0123E0230F2D3758F50196A11D63
:10066000B11D20933A0180933B0190933C01A093EC
:100670003D01B0933E0180913F0190914001A091D6
:100680004101B09142010196A11DB11D80933F012E
:1006900090934001A0934101B0934201BF91AF916B
:1006A0009F918F913F912F910F900FBE0F901F90B0
:1006B000189526E8230F0296A11DB11DD2CFE7E4BD
:1006C000F1E01382128288EE93E0A0E0B0E0848330
:1006D0009583A683B78384E091E09183808385EC42
:1006E00090E09587848784EC90E09787868780ECFC
:1006F00090E0918B808B81EC90E0938B828B82ECED
:1007000090E0958B848B86EC90E0978B868B118E96
:10071000128E138E148EE4EEF1E01682178210868C
:100720001186128613861486158616861786108AF9
:10073000118A128A138A148A158A0895789484B5C6
:10074000826084BD84B5816084BD85B5826085BDCD
:1007500085B5816085BD80916E00816080936E005B
:10076000109281008091810082608093810080914D
:1007700081008160809381008091800081608093FE
:1007800080008091B10084608093B1008091B000BE
:1007900081608093B00080917A00846080937A00B9
:1007A00080917A00826080937A0080917A008160E3
:1007B00080937A0080917A00806880937A0010920A
:1007C000C100109226021092270210922802109265
:1007D00029021092E6011092E7011092E8011092AE
:1007E000E9010E9460026B017C014B015C0128EB76
:1007F000820E2BE0921EA11CB11C0E9460026C159F
:100800007D058E059F0528F086169706A806B90671
:10081000A0F768EE73E080E090E00E942D020E9455
:1008200087000E9460026093E6017093E701809365
:10083000E8019093E90182E191E00E946C020E943C
:1008400060026B017C014B015C013AE0830E911C5C
:10085000A11CB11C0E9460026C157D058E059F05D0
:1008600028F086169706A806B906A0F781E08093BF
:10087000FA010E94870042E0C42ED12CE12CF12C19
:10088000C2E0D0E04AE0C701B6010E94790283E2EB
:1008900091E00E946C02FE01EC55FF4F2491FE0195
:1008A000E057FF4F8491882399F090E0880F991FBB
:1008B000FC01EA57FF4FA591B491FC01E458FF4FAA
:1008C000859194918FB7F894EC91E22BEC938FBFC4
:1008D00021964FEFC41AD40AE40AF40AC830D105AD
:1008E00089F600E010E084EF882E99249394A12CDF
:1008F000B12C0E946002672B682B692B09F4E0C0C1
:100900000E946002C0904301D0904401E0904501F4
:10091000F09046016C157D058E059F0508F408C111
:10092000C0904301D0904401E0904501F090460111
:100930009B01AC012C193D094E095F0969017A013F
:100940003AEFC316D104E104F10408F4C1C0609386
:100950004301709344018093450190934601809236
:10096000F2019092F301A092F401B092F50110927D
:10097000F6011092F7011092F8011092F90180919E
:10098000EA019091EB01A091EC01B091ED0180930F
:10099000EE019093EF01A093F001B093F1010E945A
:1009A00060026093EA017093EB018093EC019093F5
:1009B000ED010E9460026093E6017093E70180936D
:1009C000E8019093E9010E9460026B017C0186E2DC
:1009D00091E00E946C024AE061E070E080E090E00B
:1009E0000E9479028DE291E00E946C024AE0C70108
:1009F000B6010E9479028FE291E00E946C02809120
:100A0000EA019091EB01A091EC01B091ED01A701F9
:100A10009601281B390B4A0B5B0BCA01B9014AE04E
:100A20000E9479028FE291E00E946C026091EA01DB
:100A30007091EB018091EC019091ED01C090EE017D
:100A4000D090EF01E090F001F090F1016C197D0978
:100A50008E099F094AE00E94790281E391E00E9499
:100A60006C020E9460024AE00E94790283E391E0F6
:100A70000E946C0283E291E00E946C020E9460027C
:100A80002B013C017C016B0135E0C30ED11CE11C44
:100A9000F11C0E946002641575058605970528F013
:100AA000C616D706E806F906A0F70E946002609312
:100AB000EA017093EB018093EC019093ED0108C083
:100AC0000E946002623071058105910508F018CF1F
:100AD000C0E061E08C2F0E94BC0164E670E080E021
:100AE00090E00E942D0260E08C2F0E94BC01CF5F3D
:100AF000C83079F7C7E061E08C2F0E94BC0164E642
:100B000070E080E090E00E942D0260E08C2F0E9457
:100B1000BC01C150C13079F70115110509F4E9CEC6
:100B20000E941901882309F4E4CE0E940000E1CE5E
:100B30006093430170934401809345019093460173
:100B4000EFCEA1E21A2EAA1BBB1BFD010DC0AA1FEE
:100B5000BB1FEE1FFF1FA217B307E407F50720F026
:100B6000A21BB30BE40BF50B661F771F881F991FA1
:100B70001A9469F760957095809590959B01AC01EA
:100B8000BD01CF010895EE0FFF1F0590F491E02DF8
:060B90000994F894FFCF68
:100B9600000000004F01AF00DC009C010D01EB00DE
:100BA600FF00564D4450565F317C315F564D4450E0
:100BB600560A000D0A00564D4450455F003A323A37
:0A0BC600007C005F564D44504500CE
:107E0000112484B714BE81FFF0D085E080938100F7
:107E100082E08093C00088E18093C10086E0809377
:107E2000C20080E18093C4008EE0C9D0259A86E02C
:107E300020E33CEF91E0309385002093840096BBD3
:107E4000B09BFECF1D9AA8958150A9F7CC24DD24C4
:107E500088248394B5E0AB2EA1E19A2EF3E0BF2EE7
:107E6000A2D0813461F49FD0082FAFD0023811F036
:107E7000013811F484E001C083E08DD089C08234E0
:107E800011F484E103C0853419F485E0A6D080C0E4
:107E9000853579F488D0E82EFF2485D0082F10E0AE
:107EA000102F00270E291F29000F111F8ED06801E7
:107EB0006FC0863521F484E090D080E0DECF843638
:107EC00009F040C070D06FD0082F6DD080E0C81688
:107ED00080E7D80618F4F601B7BEE895C0E0D1E017
:107EE00062D089930C17E1F7F0E0CF16F0E7DF06D8
:107EF00018F0F601B7BEE89568D007B600FCFDCFD4
:107F0000A601A0E0B1E02C9130E011968C91119780
:107F100090E0982F8827822B932B1296FA010C0160
:107F200087BEE89511244E5F5F4FF1E0A038BF0790
:107F300051F7F601A7BEE89507B600FCFDCF97BE46
:107F4000E89526C08437B1F42ED02DD0F82E2BD052
:107F50003CD0F601EF2C8F010F5F1F4F84911BD097
:107F6000EA94F801C1F70894C11CD11CFA94CF0C13
:107F7000D11C0EC0853739F428D08EE10CD085E9AC
:107F80000AD08FE07ACF813511F488E018D01DD067
:107F900080E101D065CF982F8091C00085FFFCCF94
:107FA0009093C60008958091C00087FFFCCF809118
:107FB000C00084FD01C0A8958091C6000895E0E648
:107FC000F0E098E1908380830895EDDF803219F02E
:107FD00088E0F5DFFFCF84E1DECF1F93182FE3DFCA
:107FE0001150E9F7F2DF1F91089580E0E8DFEE27F6
:047FF000FF270994CA
:027FFE00040479
:0400000300007E007B
:00000001FF