:100000000C9462000C948A000C948A000C948A0070
:100010000C948A000C948A000C948A000C948A0038
:100020000C948A000C948A000C948A000C948A0028
:100030000C948A000C948A000C948A000C948A0018
:100040000C944A030C948A000C9418030C94F2024A
:100050000C948A000C948A000C948A000C948A00F8
:100060000C948A000C948A000000000024002700F1
:100070002A0000000000250028002B0000000008D6
:10008000000201000003040700000000000000005F
:1000900000000000230026002900040404040404D6
:1000A0000404020202020202030303030303010227
:1000B00004081020408001020408102001020408F6
:1000C0001020D90311241FBECFEFD8E0DEBFCDBF73
:1000D00022E0AAE3B1E001C01D92AA32B207E1F723
:1000E00011E0A0E0B1E0E0E3FFE002C005900D9276
:1000F000AA33B107D9F710E0C2E6D0E004C02197D7
:10010000FE010E949007C136D107C9F70E9418046A
:100110000C9496070C940000E7E4F1E0A089B18903
:1001200082E08C93A485B5851C92A685B78580E175
:100130008C93108EA489B58986E08C93A289B389AB
:100140008C9180618C93A289B3898C9188608C9307
:10015000A289B3898C9180688C930288F389E02D01
:1001600080818F7D80830895AF92BF92CF92DF927E
:10017000EF92FF920F931F93CF93DF936C017B015C
:100180008B01040F151FEB015E01AE18BF08C017ED
:10019000D10759F06991D601ED91FC910190F08160
:1001A000E02DC6010995892B79F7C501DF91CF9123
:1001B0001F910F91FF90EF90DF90CF90BF90AF9085
:1001C0000895FC01538D448D252F30E0842F90E05D
:1001D000821B930B541710F0CF9608950197089542
:1001E000FC01918D828D981761F0A28DAE0FBF2F0B
:1001F000B11D5D968C91928D9F5F9F73928F90E061
:1002000008958FEF9FEF0895FC01918D828D9817CF
:1002100031F0828DE80FF11D858D90E008958FEF0C
:100220009FEF0895FC01918D228D892F90E0805CD5
:100230009F4F821B91098F739927089587E491E05E
:100240000E94120121E0892B09F420E0822F0895F9
:1002500080E090E0892B29F00E941E0181110C940E
:1002600000000895FC01A48DA80FB92FB11DA35A59
:10027000BF4F2C91848D90E001968F739927848FC6
:10028000A689B7892C93A089B1898C9183708064E9
:100290008C93938D848D981306C00288F389E02D8A
:1002A00080818F7D80830895EF92FF920F931F933B
:1002B000CF93DF93EC0181E0888F9B8D8C8D981319
:1002C0001AC0E889F989808185FF15C09FB7F89425
:1002D000EE89FF896083E889F98980818370806471
:1002E00080839FBF81E090E0DF91CF911F910F91BC
:1002F000FF90EF900895F62E0B8D10E00F5F1F4FCB
:100300000F731127E02E8C8D8E110CC00FB607FCD9
:10031000FACFE889F989808185FFF5CFCE010E9467
:100320003201F1CFEB8DEC0FFD2FF11DE35AFF4FA2
:10033000F0829FB7F8940B8FEA89FB8980818062F5
:10034000CFCFCF93DF93EC01888D8823B9F0AA89B2
:10035000BB89E889F9898C9185FD03C0808186FD80
:100360000DC00FB607FCF7CF8C9185FFF2CF8081CF
:1003700085FFEDCFCE010E943201E9CFDF91CF9111
:10038000089590E0FC01E458FF4F2491FC01E255F0
:10039000FF4F3491FC01E656FF4FE491EE23C9F084
:1003A000222339F0233001F1A8F4213019F1223051
:1003B00029F1F0E0EE0FFF1FEE58FF4FA591B49129
:1003C0008FB7F894EC91611126C030953E233C9391
:1003D0008FBF08952730A9F02830C9F0243049F79D
:1003E000809180008F7D03C0809180008F77809303
:1003F0008000DFCF84B58F7784BDDBCF84B58F7D60
:10040000FBCF8091B0008F778093B000D2CF8091E6
:10041000B0008F7DF9CF3E2BDACFCF93DF9390E002
:10042000FC01E255FF4F249186569F4FFC018491B9
:100430008823D1F090E0880F991FFC01E859FF4F05
:10044000A591B491FC01EE58FF4FC591D491611173
:100450000EC09FB7F8948C91E22FE0958E238C9379
:100460002881E223E8839FBFDF91CF9108958FB762
:10047000F894EC91E22BEC938FBFF6CF3FB7F89452
:1004800080913F0190914001A0914101B0914201C2
:1004900026B5A89B05C02F3F19F00196A11DB11DDF
:1004A0003FBFBA2FA92F982F8827BC01CD01620F1B
:1004B000711D811D911D42E0660F771F881F991FD6
:1004C0004A95D1F708958F929F92AF92BF92CF92A3
:1004D000DF92EF92FF924B015C010E943E026B01A2
:1004E0007C010E943E026C197D098E099F09683EBD
:1004F000734081059105A8F321E0821A9108A108B3
:10050000B10888EEC80E83E0D81EE11CF11C8114EE
:100510009104A104B10429F7FF90EF90DF90CF90F0
:10052000BF90AF909F908F9008952FB7F8946091EF
:100530003B0170913C0180913D0190913E012FBFA4
:100540000895FC0101900020E9F73197AF01481BA5
:10055000590BBC0187E491E00C94B4008F929F92F8
:10056000AF92BF920F931F93CF93DF93CDB7DEB7B8
:10057000A1970FB6F894DEBF0FBECDBF19A24230CF
:1005800008F44AE08E010F5D1F4F842E912CB12C90
:10059000A12CA50194010E94C606E62FB901CA014B
:1005A000EA30F4F4E05DD801EE938D01232B242B87
:1005B000252B79F790E080E0109719F0CD010E948B
:1005C000A102A1960FB6F894DEBF0FBECDBFDF919A
:1005D000CF911F910F91BF90AF909F908F900895F2
:1005E000E95CE1CF1F920F920FB60F9211242F9367
:1005F0003F934F935F936F937F938F939F93AF93AB
:10060000BF93EF93FF9387E491E00E943201FF9143
:10061000EF91BF91AF919F918F917F916F915F917A
:100620004F913F912F910F900FBE0F901F901895F3
:100630001F920F920FB60F9211242F938F939F93B7
:10064000EF93FF93E0915701F09158018081E09181
:100650005D01F0915E0182FD1BC09081809160017F
:100660008F5F8F7320916101821741F0E0916001EB
:10067000F0E0E95BFE4F958F80936001FF91EF9171
:100680009F918F912F910F900FBE0F901F901895F3
:100690008081F4CF1F920F920FB60F9211242F93E7
:1006A0003F938F939F93AF93BF9380913B01909122
:1006B0003C01A0913D01B0913E0130913A0123E00F
:1006C000230F2D3758F50196A11DB11D20933A0136
:1006D00080933B0190933C01A0933D01B0933E0178
:1006E00080913F0190914001A0914101B091420160
:1006F0000196A11DB11D80933F0190934001A093ED
:100700004101B0934201BF91AF919F918F913F9171
:100710002F910F900FBE0F901F90189526E8230F72
:100720000296A11DB11DD2CFCF92DF92EF92FF9220
:100730000F931F93E82FF92F05C0015011092109CC
:10074000310961F1908196239417B9F305C00150E6
:1007500011092109310911F1908196239413F7CFE2
:10076000C12CD12CE12CF12C0AC08FEFC81AD80A69
:10077000E80AF80A0C151D052E053F0579F0808161
:100780008623841791F36C2D7D2D8E2D9F2D1F9127
:100790000F91FF90EF90DF90CF90089560E070E0B0
:1007A00080E090E01F910F91FF90EF90DF90CF904D
:1007B0000895E7E4F1E01382128288EE93E0A0E06E
:1007C000B0E084839583A683B78384E091E091832E
:1007D000808385EC90E09587848784EC90E0978710
:1007E000868780EC90E0918B808B81EC90E0938BFE
:1007F000828B82EC90E0958B848B86EC90E0978BDB
:10080000868B118E128E138E148EE4EEF1E016821A
:100810001782108611861286138614861586168610
:100820001786108A118A128A138A148A158A0895E3
:10083000789484B5826084BD84B5816084BD85B5BB
:10084000826085BD85B5816085BD80916E008160C7
:1008500080936E001092810080918100826080936D
:10086000810080918100816080938100809180006F
:100870008160809380008091B10084608093B1009A
:100880008091B00081608093B00080917A00846094
:1008900080937A0080917A00826080937A008091C0
:1008A0007A00816080937A0080917A0080688093DA
:1008B0007A001092C1001092260210922702109224
:1008C0002802109229021092E6011092E70110927C
:1008D000E8011092E9010E9495026B017C014B0135
:1008E0005C0128EB820E2BE0921EA11CB11C0E9421
:1008F00095026C157D058E059F0528F086169706D6
:10090000A806B906A0F768EE73E080E090E00E94C8
:1009100063020E948C000E9495026093E60170932E
:10092000E7018093E8019093E90182E191E00E9460
:10093000A1020E9495026B017C014B015C013AE02F
:10094000830E911CA11CB11C0E9495026C157D05A3
:100950008E059F0528F086169706A806B906A0F70B
:1009600081E08093FA010E948C0061E088E00E949F
:100970000D0260E087E00E940D0261E08DE00E94C0
:100980000D0243E2242E312CC0E0D0E054EF452E7E
:1009900055245394612C712C0E949502672B682B6F
:1009A000692B09F4E0C00E949502C0904301D090E9
:1009B0004401E0904501F09046016C157D058E05DF
:1009C0009F0508F44CC1C0904301D0904401E090D1
:1009D0004501F09046019B01AC012C193D094E09DF
:1009E0005F0969017A013AEFC316D104E104F10409
:1009F00008F4C1C0609343017093440180934501A2
:100A0000909346014092F2015092F3016092F401FA
:100A10007092F5011092F6011092F7011092F80110
:100A20001092F9018091EA019091EB01A091EC0103
:100A3000B091ED018093EE019093EF01A093F0014E
:100A4000B093F1010E9495026093EA017093EB016B
:100A50008093EC019093ED010E9495026093E60172
:100A60007093E7018093E8019093E9010E94950259
:100A70006B017C0183E291E00E94A1024AE061E007
:100A800070E080E090E00E94AE028AE291E00E9475
:100A9000A1024AE0C701B6010E94AE028CE291E0D9
:100AA0000E94A1028091EA019091EB01A091EC01DA
:100AB000B091ED01A7019601281B390B4A0B5B0B86
:100AC000CA01B9014AE00E94AE028CE291E00E94A4
:100AD000A1026091EA017091EB018091EC0190918B
:100AE000ED01C090EE01D090EF01E090F001F090A8
:100AF000F1016C197D098E099F094AE00E94AE023E
:100B00008EE291E00E94A1020E9495024AE00E94BA
:100B1000AE0280E391E00E94A10287E391E00E948F
:100B2000A1020E9495026B017C014B015C0135E042
:100B3000830E911CA11CB11C0E9495026C157D05B1
:100B40008E059F0528F086169706A806B906A0F719
:100B50000E9495026093EA017093EB018093EC018F
:100B60009093ED0108C00E949502623071058105E5
:100B7000910508F018CF60E088E00E94C10183E091
:100B800090E00197F1F761E088E00E94C101C101A6
:100B90000197F1F760E088E00E94C101E5EBF0E029
:100BA0006491E1EAF0E08491E82FF0E0EE0FFF1F9E
:100BB000E057FF4F8591949100E412E42FE030E07C
:100BC000462F0E949403611571058105910529F056
:100BD0006F5F7F4F8F4F9F4F9F709595879577954C
:100BE00067950E943A062DEC3CEC48EE51E40E94D9
:100BF000E8060E945A076B017C014AE0F7FE0DC02F
:100C00006DE287E491E00E94540166277727CB01CB
:100C10006C197D098E099F094AE00E94AE0287E3A4
:100C200091E00E94A10261E0FFE0CF16D104E1044F
:100C3000F1040CF060E08DE00E94C10164EF71E00E
:100C400080E090E00E946302209709F4A5CE0E9404
:100C50001E01882309F4A0CE0E9400009DCE60935F
:100C60004301709344018093450190934601ABCEBC
:100C7000E89409C097FB3EF4909580957095619536
:100C80007F4F8F4F9F4F9923A9F0F92F96E9BB27EC
:100C90009395F695879577956795B795F111F8CF68
:100CA000FAF4BB0F11F460FF1BC06F5F7F4F8F4FD3
:100CB0009F4F16C0882311F096E911C0772321F0C9
:100CC0009EE8872F762F05C0662371F096E8862F61
:100CD00070E060E02AF09A95660F771F881FDAF7B8
:100CE000880F9695879597F9089597F99F6780E8FB
:100CF00070E060E008959FEF80EC089500240A946E
:100D00001616170618060906089500240A941216E6
:100D10001306140605060895092E0394000C11F419
:100D2000882352F0BB0F40F4BF2B11F460FF04C0C6
:100D30006F5F7F4F8F4F9F4F089557FD9058440F1F
:100D4000551F59F05F3F71F04795880F97FB991F2A
:100D500061F09F3F79F087950895121613061406E7
:100D6000551FF2CF4695F1DF08C016161706180674
:100D7000991FF1CF86957105610508940895E8944F
:100D8000BB2766277727CB0197F90895A1E21A2E92
:100D9000AA1BBB1BFD010DC0AA1FBB1FEE1FFF1F1F
:100DA000A217B307E407F50720F0A21BB30BE40B6F
:100DB000F50B661F771F881F991F1A9469F76095B6
:100DC0007095809590959B01AC01BD01CF01089570
:100DD0000E94FC060C948C060E94850658F00E9426
:100DE0007E0640F029F45F3F29F00C9475065111FE
:100DF0000C94C0060C947B060E949D0668F3992310
:100E0000B1F3552391F3951B550BBB27AA27621706
:100E10007307840738F09F5F5F4F220F331F441F13
:100E2000AA1FA9F335D00E2E3AF0E0E832D0915047
:100E30005040E695001CCAF72BD0FE2F29D0660F34
:100E4000771F881FBB1F261737074807AB07B0E877
:100E500009F0BB0B802DBF01FF2793585F4F3AF07D
:100E60009E3F510578F00C9475060C94C0065F3FC8
:100E7000E4F3983ED4F3869577956795B795F79503
:100E80009F5FC9F7880F911D9695879597F90895EB
:100E9000E1E0660F771F881FBB1F62177307840787
:100EA000BA0720F0621B730B840BBA0BEE1F88F796
:100EB000E09508950E9461076894B1110C94C006F2
:100EC00008950E94A50688F09F5798F0B92F99279A
:100ED000B751B0F0E1F0660F771F881F991F1AF025
:100EE000BA95C9F714C0B13091F00E94BF06B1E0C5
:100EF00008950C94BF06672F782F8827B85F39F0C4
:100F0000B93FCCF3869577956795B395D9F73EF4BD
:100F100090958095709561957F4F8F4F9F4F089565
:100F2000EE0FFF1F0590F491E02D0994F894FFCF88
:100F3000000000005401B400E100A1011201F00022
:100F40000401564D4450565F317C315F564D44503C
:100F5000560A00564D4450455F003A323A007C0034
:0A0F60005F564D445045000D0A0095
:00000001FF
